{
  "contractName": "CryptoCoders",
  "abi": [
    {
      "inputs": [],
      "stateMutability": "nonpayable",
      "type": "constructor"
    },
    {
      "anonymous": false,
      "inputs": [
        {
          "indexed": true,
          "internalType": "address",
          "name": "owner",
          "type": "address"
        },
        {
          "indexed": true,
          "internalType": "address",
          "name": "approved",
          "type": "address"
        },
        {
          "indexed": true,
          "internalType": "uint256",
          "name": "tokenId",
          "type": "uint256"
        }
      ],
      "name": "Approval",
      "type": "event"
    },
    {
      "anonymous": false,
      "inputs": [
        {
          "indexed": true,
          "internalType": "address",
          "name": "owner",
          "type": "address"
        },
        {
          "indexed": true,
          "internalType": "address",
          "name": "operator",
          "type": "address"
        },
        {
          "indexed": false,
          "internalType": "bool",
          "name": "approved",
          "type": "bool"
        }
      ],
      "name": "ApprovalForAll",
      "type": "event"
    },
    {
      "anonymous": false,
      "inputs": [
        {
          "indexed": true,
          "internalType": "address",
          "name": "from",
          "type": "address"
        },
        {
          "indexed": true,
          "internalType": "address",
          "name": "to",
          "type": "address"
        },
        {
          "indexed": true,
          "internalType": "uint256",
          "name": "tokenId",
          "type": "uint256"
        }
      ],
      "name": "Transfer",
      "type": "event"
    },
    {
      "inputs": [
        {
          "internalType": "address",
          "name": "to",
          "type": "address"
        },
        {
          "internalType": "uint256",
          "name": "tokenId",
          "type": "uint256"
        }
      ],
      "name": "approve",
      "outputs": [],
      "stateMutability": "nonpayable",
      "type": "function"
    },
    {
      "inputs": [
        {
          "internalType": "address",
          "name": "owner",
          "type": "address"
        }
      ],
      "name": "balanceOf",
      "outputs": [
        {
          "internalType": "uint256",
          "name": "",
          "type": "uint256"
        }
      ],
      "stateMutability": "view",
      "type": "function",
      "constant": true
    },
    {
      "inputs": [
        {
          "internalType": "string",
          "name": "",
          "type": "string"
        }
      ],
      "name": "coderExist",
      "outputs": [
        {
          "internalType": "bool",
          "name": "",
          "type": "bool"
        }
      ],
      "stateMutability": "view",
      "type": "function",
      "constant": true
    },
    {
      "inputs": [
        {
          "internalType": "uint256",
          "name": "",
          "type": "uint256"
        }
      ],
      "name": "coders",
      "outputs": [
        {
          "internalType": "string",
          "name": "",
          "type": "string"
        }
      ],
      "stateMutability": "view",
      "type": "function",
      "constant": true
    },
    {
      "inputs": [
        {
          "internalType": "uint256",
          "name": "tokenId",
          "type": "uint256"
        }
      ],
      "name": "getApproved",
      "outputs": [
        {
          "internalType": "address",
          "name": "",
          "type": "address"
        }
      ],
      "stateMutability": "view",
      "type": "function",
      "constant": true
    },
    {
      "inputs": [
        {
          "internalType": "address",
          "name": "owner",
          "type": "address"
        },
        {
          "internalType": "address",
          "name": "operator",
          "type": "address"
        }
      ],
      "name": "isApprovedForAll",
      "outputs": [
        {
          "internalType": "bool",
          "name": "",
          "type": "bool"
        }
      ],
      "stateMutability": "view",
      "type": "function",
      "constant": true
    },
    {
      "inputs": [],
      "name": "name",
      "outputs": [
        {
          "internalType": "string",
          "name": "",
          "type": "string"
        }
      ],
      "stateMutability": "view",
      "type": "function",
      "constant": true
    },
    {
      "inputs": [
        {
          "internalType": "uint256",
          "name": "tokenId",
          "type": "uint256"
        }
      ],
      "name": "ownerOf",
      "outputs": [
        {
          "internalType": "address",
          "name": "",
          "type": "address"
        }
      ],
      "stateMutability": "view",
      "type": "function",
      "constant": true
    },
    {
      "inputs": [
        {
          "internalType": "address",
          "name": "from",
          "type": "address"
        },
        {
          "internalType": "address",
          "name": "to",
          "type": "address"
        },
        {
          "internalType": "uint256",
          "name": "tokenId",
          "type": "uint256"
        }
      ],
      "name": "safeTransferFrom",
      "outputs": [],
      "stateMutability": "nonpayable",
      "type": "function"
    },
    {
      "inputs": [
        {
          "internalType": "address",
          "name": "from",
          "type": "address"
        },
        {
          "internalType": "address",
          "name": "to",
          "type": "address"
        },
        {
          "internalType": "uint256",
          "name": "tokenId",
          "type": "uint256"
        },
        {
          "internalType": "bytes",
          "name": "_data",
          "type": "bytes"
        }
      ],
      "name": "safeTransferFrom",
      "outputs": [],
      "stateMutability": "nonpayable",
      "type": "function"
    },
    {
      "inputs": [
        {
          "internalType": "address",
          "name": "operator",
          "type": "address"
        },
        {
          "internalType": "bool",
          "name": "approved",
          "type": "bool"
        }
      ],
      "name": "setApprovalForAll",
      "outputs": [],
      "stateMutability": "nonpayable",
      "type": "function"
    },
    {
      "inputs": [],
      "name": "symbol",
      "outputs": [
        {
          "internalType": "string",
          "name": "",
          "type": "string"
        }
      ],
      "stateMutability": "view",
      "type": "function",
      "constant": true
    },
    {
      "inputs": [
        {
          "internalType": "uint256",
          "name": "index",
          "type": "uint256"
        }
      ],
      "name": "tokenByIndex",
      "outputs": [
        {
          "internalType": "uint256",
          "name": "",
          "type": "uint256"
        }
      ],
      "stateMutability": "view",
      "type": "function",
      "constant": true
    },
    {
      "inputs": [
        {
          "internalType": "address",
          "name": "owner",
          "type": "address"
        },
        {
          "internalType": "uint256",
          "name": "index",
          "type": "uint256"
        }
      ],
      "name": "tokenOfOwnerByIndex",
      "outputs": [
        {
          "internalType": "uint256",
          "name": "",
          "type": "uint256"
        }
      ],
      "stateMutability": "view",
      "type": "function",
      "constant": true
    },
    {
      "inputs": [
        {
          "internalType": "uint256",
          "name": "tokenId",
          "type": "uint256"
        }
      ],
      "name": "tokenURI",
      "outputs": [
        {
          "internalType": "string",
          "name": "",
          "type": "string"
        }
      ],
      "stateMutability": "view",
      "type": "function",
      "constant": true
    },
    {
      "inputs": [],
      "name": "totalSupply",
      "outputs": [
        {
          "internalType": "uint256",
          "name": "",
          "type": "uint256"
        }
      ],
      "stateMutability": "view",
      "type": "function",
      "constant": true
    },
    {
      "inputs": [
        {
          "internalType": "address",
          "name": "from",
          "type": "address"
        },
        {
          "internalType": "address",
          "name": "to",
          "type": "address"
        },
        {
          "internalType": "uint256",
          "name": "tokenId",
          "type": "uint256"
        }
      ],
      "name": "transferFrom",
      "outputs": [],
      "stateMutability": "nonpayable",
      "type": "function"
    },
    {
      "inputs": [
        {
          "internalType": "string",
          "name": "_coder",
          "type": "string"
        }
      ],
      "name": "mint",
      "outputs": [],
      "stateMutability": "nonpayable",
      "type": "function"
    },
    {
      "inputs": [
        {
          "internalType": "bytes4",
          "name": "interfaceId",
          "type": "bytes4"
        }
      ],
      "name": "supportsInterface",
      "outputs": [
        {
          "internalType": "bool",
          "name": "",
          "type": "bool"
        }
      ],
      "stateMutability": "view",
      "type": "function",
      "constant": true
    }
  ],
  "bytecode": "0x60806040523480156200001157600080fd5b506040518060400160405280600b81526020017f43727970746f436f6465720000000000000000000000000000000000000000008152506040518060400160405280600381526020017f4343530000000000000000000000000000000000000000000000000000000000815250816000908051906020019062000096929190620000b8565b508060019080519060200190620000af929190620000b8565b505050620001cd565b828054620000c69062000168565b90600052602060002090601f016020900481019282620000ea576000855562000136565b82601f106200010557805160ff191683800117855562000136565b8280016001018555821562000136579182015b828111156200013557825182559160200191906001019062000118565b5b50905062000145919062000149565b5090565b5b80821115620001645760008160009055506001016200014a565b5090565b600060028204905060018216806200018157607f821691505b602082108114156200019857620001976200019e565b5b50919050565b7f4e487b7100000000000000000000000000000000000000000000000000000000600052602260045260246000fd5b61329d80620001dd6000396000f3fe608060405234801561001057600080fd5b50600436106101215760003560e01c80634f6ccce7116100ad578063a22cb46511610071578063a22cb46514610354578063b88d4fde14610370578063c87b56dd1461038c578063d85d3d27146103bc578063e985e9c5146103d857610121565b80634f6ccce7146102765780636352211e146102a657806370a08231146102d657806377c51a341461030657806395d89b411461033657610121565b806318160ddd116100f457806318160ddd146101c057806323b872dd146101de5780632f745c59146101fa57806342842e0e1461022a5780634cfa16f91461024657610121565b806301ffc9a71461012657806306fdde0314610156578063081812fc14610174578063095ea7b3146101a4575b600080fd5b610140600480360381019061013b91906122f2565b610408565b60405161014d9190612750565b60405180910390f35b61015e61041a565b60405161016b919061276b565b60405180910390f35b61018e60048036038101906101899190612385565b6104ac565b60405161019b91906126e9565b60405180910390f35b6101be60048036038101906101b991906122b6565b610531565b005b6101c8610649565b6040516101d5919061298d565b60405180910390f35b6101f860048036038101906101f391906121b0565b610656565b005b610214600480360381019061020f91906122b6565b6106b6565b604051610221919061298d565b60405180910390f35b610244600480360381019061023f91906121b0565b61075b565b005b610260600480360381019061025b9190612385565b61077b565b60405161026d919061276b565b60405180910390f35b610290600480360381019061028b9190612385565b610827565b60405161029d919061298d565b60405180910390f35b6102c060048036038101906102bb9190612385565b6108be565b6040516102cd91906126e9565b60405180910390f35b6102f060048036038101906102eb919061214b565b610970565b6040516102fd919061298d565b60405180910390f35b610320600480360381019061031b9190612344565b610a28565b60405161032d9190612750565b60405180910390f35b61033e610a5e565b60405161034b919061276b565b60405180910390f35b61036e6004803603810190610369919061227a565b610af0565b005b61038a600480360381019061038591906121ff565b610b06565b005b6103a660048036038101906103a19190612385565b610b68565b6040516103b3919061276b565b60405180910390f35b6103d660048036038101906103d19190612344565b610c0f565b005b6103f260048036038101906103ed9190612174565b610cdc565b6040516103ff9190612750565b60405180910390f35b600061041382610d70565b9050919050565b60606000805461042990612be3565b80601f016020809104026020016040519081016040528092919081815260200182805461045590612be3565b80156104a25780601f10610477576101008083540402835291602001916104a2565b820191906000526020600020905b81548152906001019060200180831161048557829003601f168201915b5050505050905090565b60006104b782610dea565b6104f6576040517f08c379a00000000000000000000000000000000000000000000000000000000081526004016104ed906128ed565b60405180910390fd5b6004600083815260200190815260200160002060009054906101000a900473ffffffffffffffffffffffffffffffffffffffff169050919050565b600061053c826108be565b90508073ffffffffffffffffffffffffffffffffffffffff168373ffffffffffffffffffffffffffffffffffffffff1614156105ad576040517f08c379a00000000000000000000000000000000000000000000000000000000081526004016105a49061292d565b60405180910390fd5b8073ffffffffffffffffffffffffffffffffffffffff166105cc610e56565b73ffffffffffffffffffffffffffffffffffffffff1614806105fb57506105fa816105f5610e56565b610cdc565b5b61063a576040517f08c379a00000000000000000000000000000000000000000000000000000000081526004016106319061286d565b60405180910390fd5b6106448383610e5e565b505050565b6000600880549050905090565b610667610661610e56565b82610f17565b6106a6576040517f08c379a000000000000000000000000000000000000000000000000000000000815260040161069d9061294d565b60405180910390fd5b6106b1838383610ff5565b505050565b60006106c183610970565b8210610702576040517f08c379a00000000000000000000000000000000000000000000000000000000081526004016106f99061278d565b60405180910390fd5b600660008473ffffffffffffffffffffffffffffffffffffffff1673ffffffffffffffffffffffffffffffffffffffff168152602001908152602001600020600083815260200190815260200160002054905092915050565b61077683838360405180602001604052806000815250610b06565b505050565b600a818154811061078b57600080fd5b9060005260206000200160009150905080546107a690612be3565b80601f01602080910402602001604051908101604052809291908181526020018280546107d290612be3565b801561081f5780601f106107f45761010080835404028352916020019161081f565b820191906000526020600020905b81548152906001019060200180831161080257829003601f168201915b505050505081565b6000610831610649565b8210610872576040517f08c379a00000000000000000000000000000000000000000000000000000000081526004016108699061296d565b60405180910390fd5b600882815481106108ac577f4e487b7100000000000000000000000000000000000000000000000000000000600052603260045260246000fd5b90600052602060002001549050919050565b6000806002600084815260200190815260200160002060009054906101000a900473ffffffffffffffffffffffffffffffffffffffff169050600073ffffffffffffffffffffffffffffffffffffffff168173ffffffffffffffffffffffffffffffffffffffff161415610967576040517f08c379a000000000000000000000000000000000000000000000000000000000815260040161095e906128ad565b60405180910390fd5b80915050919050565b60008073ffffffffffffffffffffffffffffffffffffffff168273ffffffffffffffffffffffffffffffffffffffff1614156109e1576040517f08c379a00000000000000000000000000000000000000000000000000000000081526004016109d89061288d565b60405180910390fd5b600360008373ffffffffffffffffffffffffffffffffffffffff1673ffffffffffffffffffffffffffffffffffffffff168152602001908152602001600020549050919050565b600b818051602081018201805184825260208301602085012081835280955050505050506000915054906101000a900460ff1681565b606060018054610a6d90612be3565b80601f0160208091040260200160405190810160405280929190818152602001828054610a9990612be3565b8015610ae65780601f10610abb57610100808354040283529160200191610ae6565b820191906000526020600020905b815481529060010190602001808311610ac957829003601f168201915b5050505050905090565b610b02610afb610e56565b838361125c565b5050565b610b17610b11610e56565b83610f17565b610b56576040517f08c379a0000000000000000000000000000000000000000000000000000000008152600401610b4d9061294d565b60405180910390fd5b610b62848484846113c9565b50505050565b6060610b7382610dea565b610bb2576040517f08c379a0000000000000000000000000000000000000000000000000000000008152600401610ba99061290d565b60405180910390fd5b6000610bbc611425565b90506000815111610bdc5760405180602001604052806000815250610c07565b80610be68461143c565b604051602001610bf79291906126c5565b6040516020818303038152906040525b915050919050565b600b81604051610c1f91906126ae565b908152602001604051809103902060009054906101000a900460ff1615610c4557600080fd5b600a81908060018154018082558091505060019003906000526020600020016000909190919091509080519060200190610c80929190611f6f565b5060006001600a80549050610c959190612af9565b9050610ca133826115e9565b6001600b83604051610cb391906126ae565b908152602001604051809103902060006101000a81548160ff0219169083151502179055505050565b6000600560008473ffffffffffffffffffffffffffffffffffffffff1673ffffffffffffffffffffffffffffffffffffffff16815260200190815260200160002060008373ffffffffffffffffffffffffffffffffffffffff1673ffffffffffffffffffffffffffffffffffffffff16815260200190815260200160002060009054906101000a900460ff16905092915050565b60007f780e9d63000000000000000000000000000000000000000000000000000000007bffffffffffffffffffffffffffffffffffffffffffffffffffffffff1916827bffffffffffffffffffffffffffffffffffffffffffffffffffffffff19161480610de35750610de2826117c3565b5b9050919050565b60008073ffffffffffffffffffffffffffffffffffffffff166002600084815260200190815260200160002060009054906101000a900473ffffffffffffffffffffffffffffffffffffffff1673ffffffffffffffffffffffffffffffffffffffff1614159050919050565b600033905090565b816004600083815260200190815260200160002060006101000a81548173ffffffffffffffffffffffffffffffffffffffff021916908373ffffffffffffffffffffffffffffffffffffffff160217905550808273ffffffffffffffffffffffffffffffffffffffff16610ed1836108be565b73ffffffffffffffffffffffffffffffffffffffff167f8c5be1e5ebec7d5bd14f71427d1e84f3dd0314c0f7b2291e5b200ac8c7c3b92560405160405180910390a45050565b6000610f2282610dea565b610f61576040517f08c379a0000000000000000000000000000000000000000000000000000000008152600401610f589061284d565b60405180910390fd5b6000610f6c836108be565b90508073ffffffffffffffffffffffffffffffffffffffff168473ffffffffffffffffffffffffffffffffffffffff161480610fdb57508373ffffffffffffffffffffffffffffffffffffffff16610fc3846104ac565b73ffffffffffffffffffffffffffffffffffffffff16145b80610fec5750610feb8185610cdc565b5b91505092915050565b8273ffffffffffffffffffffffffffffffffffffffff16611015826108be565b73ffffffffffffffffffffffffffffffffffffffff161461106b576040517f08c379a0000000000000000000000000000000000000000000000000000000008152600401611062906127cd565b60405180910390fd5b600073ffffffffffffffffffffffffffffffffffffffff168273ffffffffffffffffffffffffffffffffffffffff1614156110db576040517f08c379a00000000000000000000000000000000000000000000000000000000081526004016110d29061280d565b60405180910390fd5b6110e68383836118a5565b6110f1600082610e5e565b6001600360008573ffffffffffffffffffffffffffffffffffffffff1673ffffffffffffffffffffffffffffffffffffffff16815260200190815260200160002060008282546111419190612af9565b925050819055506001600360008473ffffffffffffffffffffffffffffffffffffffff1673ffffffffffffffffffffffffffffffffffffffff16815260200190815260200160002060008282546111989190612a72565b92505081905550816002600083815260200190815260200160002060006101000a81548173ffffffffffffffffffffffffffffffffffffffff021916908373ffffffffffffffffffffffffffffffffffffffff160217905550808273ffffffffffffffffffffffffffffffffffffffff168473ffffffffffffffffffffffffffffffffffffffff167fddf252ad1be2c89b69c2b068fc378daa952ba7f163c4a11628f55a4df523b3ef60405160405180910390a46112578383836118b5565b505050565b8173ffffffffffffffffffffffffffffffffffffffff168373ffffffffffffffffffffffffffffffffffffffff1614156112cb576040517f08c379a00000000000000000000000000000000000000000000000000000000081526004016112c29061282d565b60405180910390fd5b80600560008573ffffffffffffffffffffffffffffffffffffffff1673ffffffffffffffffffffffffffffffffffffffff16815260200190815260200160002060008473ffffffffffffffffffffffffffffffffffffffff1673ffffffffffffffffffffffffffffffffffffffff16815260200190815260200160002060006101000a81548160ff0219169083151502179055508173ffffffffffffffffffffffffffffffffffffffff168373ffffffffffffffffffffffffffffffffffffffff167f17307eab39ab6107e8899845ad3d59bd9653f200f220920489ca2b5937696c31836040516113bc9190612750565b60405180910390a3505050565b6113d4848484610ff5565b6113e0848484846118ba565b61141f576040517f08c379a0000000000000000000000000000000000000000000000000000000008152600401611416906127ad565b60405180910390fd5b50505050565b606060405180602001604052806000815250905090565b60606000821415611484576040518060400160405280600181526020017f300000000000000000000000000000000000000000000000000000000000000081525090506115e4565b600082905060005b600082146114b657808061149f90612c46565b915050600a826114af9190612ac8565b915061148c565b60008167ffffffffffffffff8111156114f8577f4e487b7100000000000000000000000000000000000000000000000000000000600052604160045260246000fd5b6040519080825280601f01601f19166020018201604052801561152a5781602001600182028036833780820191505090505b5090505b600085146115dd576001826115439190612af9565b9150600a856115529190612c8f565b603061155e9190612a72565b60f81b81838151811061159a577f4e487b7100000000000000000000000000000000000000000000000000000000600052603260045260246000fd5b60200101907effffffffffffffffffffffffffffffffffffffffffffffffffffffffffffff1916908160001a905350600a856115d69190612ac8565b945061152e565b8093505050505b919050565b600073ffffffffffffffffffffffffffffffffffffffff168273ffffffffffffffffffffffffffffffffffffffff161415611659576040517f08c379a0000000000000000000000000000000000000000000000000000000008152600401611650906128cd565b60405180910390fd5b61166281610dea565b156116a2576040517f08c379a0000000000000000000000000000000000000000000000000000000008152600401611699906127ed565b60405180910390fd5b6116ae600083836118a5565b6001600360008473ffffffffffffffffffffffffffffffffffffffff1673ffffffffffffffffffffffffffffffffffffffff16815260200190815260200160002060008282546116fe9190612a72565b92505081905550816002600083815260200190815260200160002060006101000a81548173ffffffffffffffffffffffffffffffffffffffff021916908373ffffffffffffffffffffffffffffffffffffffff160217905550808273ffffffffffffffffffffffffffffffffffffffff16600073ffffffffffffffffffffffffffffffffffffffff167fddf252ad1be2c89b69c2b068fc378daa952ba7f163c4a11628f55a4df523b3ef60405160405180910390a46117bf600083836118b5565b5050565b60007f80ac58cd000000000000000000000000000000000000000000000000000000007bffffffffffffffffffffffffffffffffffffffffffffffffffffffff1916827bffffffffffffffffffffffffffffffffffffffffffffffffffffffff1916148061188e57507f5b5e139f000000000000000000000000000000000000000000000000000000007bffffffffffffffffffffffffffffffffffffffffffffffffffffffff1916827bffffffffffffffffffffffffffffffffffffffffffffffffffffffff1916145b8061189e575061189d82611a51565b5b9050919050565b6118b0838383611abb565b505050565b505050565b60006118db8473ffffffffffffffffffffffffffffffffffffffff16611bcf565b15611a44578373ffffffffffffffffffffffffffffffffffffffff1663150b7a02611904610e56565b8786866040518563ffffffff1660e01b81526004016119269493929190612704565b602060405180830381600087803b15801561194057600080fd5b505af192505050801561197157506040513d601f19601f8201168201806040525081019061196e919061231b565b60015b6119f4573d80600081146119a1576040519150601f19603f3d011682016040523d82523d6000602084013e6119a6565b606091505b506000815114156119ec576040517f08c379a00000000000000000000000000000000000000000000000000000000081526004016119e3906127ad565b60405180910390fd5b805181602001fd5b63150b7a0260e01b7bffffffffffffffffffffffffffffffffffffffffffffffffffffffff1916817bffffffffffffffffffffffffffffffffffffffffffffffffffffffff191614915050611a49565b600190505b949350505050565b60007f01ffc9a7000000000000000000000000000000000000000000000000000000007bffffffffffffffffffffffffffffffffffffffffffffffffffffffff1916827bffffffffffffffffffffffffffffffffffffffffffffffffffffffff1916149050919050565b611ac6838383611bf2565b600073ffffffffffffffffffffffffffffffffffffffff168373ffffffffffffffffffffffffffffffffffffffff161415611b0957611b0481611bf7565b611b48565b8173ffffffffffffffffffffffffffffffffffffffff168373ffffffffffffffffffffffffffffffffffffffff1614611b4757611b468382611c40565b5b5b600073ffffffffffffffffffffffffffffffffffffffff168273ffffffffffffffffffffffffffffffffffffffff161415611b8b57611b8681611dad565b611bca565b8273ffffffffffffffffffffffffffffffffffffffff168273ffffffffffffffffffffffffffffffffffffffff1614611bc957611bc88282611ef0565b5b5b505050565b6000808273ffffffffffffffffffffffffffffffffffffffff163b119050919050565b505050565b6008805490506009600083815260200190815260200160002081905550600881908060018154018082558091505060019003906000526020600020016000909190919091505550565b60006001611c4d84610970565b611c579190612af9565b9050600060076000848152602001908152602001600020549050818114611d3c576000600660008673ffffffffffffffffffffffffffffffffffffffff1673ffffffffffffffffffffffffffffffffffffffff168152602001908152602001600020600084815260200190815260200160002054905080600660008773ffffffffffffffffffffffffffffffffffffffff1673ffffffffffffffffffffffffffffffffffffffff168152602001908152602001600020600084815260200190815260200160002081905550816007600083815260200190815260200160002081905550505b6007600084815260200190815260200160002060009055600660008573ffffffffffffffffffffffffffffffffffffffff1673ffffffffffffffffffffffffffffffffffffffff16815260200190815260200160002060008381526020019081526020016000206000905550505050565b60006001600880549050611dc19190612af9565b9050600060096000848152602001908152602001600020549050600060088381548110611e17577f4e487b7100000000000000000000000000000000000000000000000000000000600052603260045260246000fd5b906000526020600020015490508060088381548110611e5f577f4e487b7100000000000000000000000000000000000000000000000000000000600052603260045260246000fd5b906000526020600020018190555081600960008381526020019081526020016000208190555060096000858152602001908152602001600020600090556008805480611ed4577f4e487b7100000000000000000000000000000000000000000000000000000000600052603160045260246000fd5b6001900381819060005260206000200160009055905550505050565b6000611efb83610970565b905081600660008573ffffffffffffffffffffffffffffffffffffffff1673ffffffffffffffffffffffffffffffffffffffff168152602001908152602001600020600083815260200190815260200160002081905550806007600084815260200190815260200160002081905550505050565b828054611f7b90612be3565b90600052602060002090601f016020900481019282611f9d5760008555611fe4565b82601f10611fb657805160ff1916838001178555611fe4565b82800160010185558215611fe4579182015b82811115611fe3578251825591602001919060010190611fc8565b5b509050611ff19190611ff5565b5090565b5b8082111561200e576000816000905550600101611ff6565b5090565b6000612025612020846129cd565b6129a8565b90508281526020810184848401111561203d57600080fd5b612048848285612ba1565b509392505050565b600061206361205e846129fe565b6129a8565b90508281526020810184848401111561207b57600080fd5b612086848285612ba1565b509392505050565b60008135905061209d8161320b565b92915050565b6000813590506120b281613222565b92915050565b6000813590506120c781613239565b92915050565b6000815190506120dc81613239565b92915050565b600082601f8301126120f357600080fd5b8135612103848260208601612012565b91505092915050565b600082601f83011261211d57600080fd5b813561212d848260208601612050565b91505092915050565b60008135905061214581613250565b92915050565b60006020828403121561215d57600080fd5b600061216b8482850161208e565b91505092915050565b6000806040838503121561218757600080fd5b60006121958582860161208e565b92505060206121a68582860161208e565b9150509250929050565b6000806000606084860312156121c557600080fd5b60006121d38682870161208e565b93505060206121e48682870161208e565b92505060406121f586828701612136565b9150509250925092565b6000806000806080858703121561221557600080fd5b60006122238782880161208e565b94505060206122348782880161208e565b935050604061224587828801612136565b925050606085013567ffffffffffffffff81111561226257600080fd5b61226e878288016120e2565b91505092959194509250565b6000806040838503121561228d57600080fd5b600061229b8582860161208e565b92505060206122ac858286016120a3565b9150509250929050565b600080604083850312156122c957600080fd5b60006122d78582860161208e565b92505060206122e885828601612136565b9150509250929050565b60006020828403121561230457600080fd5b6000612312848285016120b8565b91505092915050565b60006020828403121561232d57600080fd5b600061233b848285016120cd565b91505092915050565b60006020828403121561235657600080fd5b600082013567ffffffffffffffff81111561237057600080fd5b61237c8482850161210c565b91505092915050565b60006020828403121561239757600080fd5b60006123a584828501612136565b91505092915050565b6123b781612b2d565b82525050565b6123c681612b3f565b82525050565b60006123d782612a2f565b6123e18185612a45565b93506123f1818560208601612bb0565b6123fa81612d7c565b840191505092915050565b600061241082612a3a565b61241a8185612a56565b935061242a818560208601612bb0565b61243381612d7c565b840191505092915050565b600061244982612a3a565b6124538185612a67565b9350612463818560208601612bb0565b80840191505092915050565b600061247c602b83612a56565b915061248782612d8d565b604082019050919050565b600061249f603283612a56565b91506124aa82612ddc565b604082019050919050565b60006124c2602583612a56565b91506124cd82612e2b565b604082019050919050565b60006124e5601c83612a56565b91506124f082612e7a565b602082019050919050565b6000612508602483612a56565b915061251382612ea3565b604082019050919050565b600061252b601983612a56565b915061253682612ef2565b602082019050919050565b600061254e602c83612a56565b915061255982612f1b565b604082019050919050565b6000612571603883612a56565b915061257c82612f6a565b604082019050919050565b6000612594602a83612a56565b915061259f82612fb9565b604082019050919050565b60006125b7602983612a56565b91506125c282613008565b604082019050919050565b60006125da602083612a56565b91506125e582613057565b602082019050919050565b60006125fd602c83612a56565b915061260882613080565b604082019050919050565b6000612620602f83612a56565b915061262b826130cf565b604082019050919050565b6000612643602183612a56565b915061264e8261311e565b604082019050919050565b6000612666603183612a56565b91506126718261316d565b604082019050919050565b6000612689602c83612a56565b9150612694826131bc565b604082019050919050565b6126a881612b97565b82525050565b60006126ba828461243e565b915081905092915050565b60006126d1828561243e565b91506126dd828461243e565b91508190509392505050565b60006020820190506126fe60008301846123ae565b92915050565b600060808201905061271960008301876123ae565b61272660208301866123ae565b612733604083018561269f565b818103606083015261274581846123cc565b905095945050505050565b600060208201905061276560008301846123bd565b92915050565b600060208201905081810360008301526127858184612405565b905092915050565b600060208201905081810360008301526127a68161246f565b9050919050565b600060208201905081810360008301526127c681612492565b9050919050565b600060208201905081810360008301526127e6816124b5565b9050919050565b60006020820190508181036000830152612806816124d8565b9050919050565b60006020820190508181036000830152612826816124fb565b9050919050565b600060208201905081810360008301526128468161251e565b9050919050565b6000602082019050818103600083015261286681612541565b9050919050565b6000602082019050818103600083015261288681612564565b9050919050565b600060208201905081810360008301526128a681612587565b9050919050565b600060208201905081810360008301526128c6816125aa565b9050919050565b600060208201905081810360008301526128e6816125cd565b9050919050565b60006020820190508181036000830152612906816125f0565b9050919050565b6000602082019050818103600083015261292681612613565b9050919050565b6000602082019050818103600083015261294681612636565b9050919050565b6000602082019050818103600083015261296681612659565b9050919050565b600060208201905081810360008301526129868161267c565b9050919050565b60006020820190506129a2600083018461269f565b92915050565b60006129b26129c3565b90506129be8282612c15565b919050565b6000604051905090565b600067ffffffffffffffff8211156129e8576129e7612d4d565b5b6129f182612d7c565b9050602081019050919050565b600067ffffffffffffffff821115612a1957612a18612d4d565b5b612a2282612d7c565b9050602081019050919050565b600081519050919050565b600081519050919050565b600082825260208201905092915050565b600082825260208201905092915050565b600081905092915050565b6000612a7d82612b97565b9150612a8883612b97565b9250827fffffffffffffffffffffffffffffffffffffffffffffffffffffffffffffffff03821115612abd57612abc612cc0565b5b828201905092915050565b6000612ad382612b97565b9150612ade83612b97565b925082612aee57612aed612cef565b5b828204905092915050565b6000612b0482612b97565b9150612b0f83612b97565b925082821015612b2257612b21612cc0565b5b828203905092915050565b6000612b3882612b77565b9050919050565b60008115159050919050565b60007fffffffff0000000000000000000000000000000000000000000000000000000082169050919050565b600073ffffffffffffffffffffffffffffffffffffffff82169050919050565b6000819050919050565b82818337600083830152505050565b60005b83811015612bce578082015181840152602081019050612bb3565b83811115612bdd576000848401525b50505050565b60006002820490506001821680612bfb57607f821691505b60208210811415612c0f57612c0e612d1e565b5b50919050565b612c1e82612d7c565b810181811067ffffffffffffffff82111715612c3d57612c3c612d4d565b5b80604052505050565b6000612c5182612b97565b91507fffffffffffffffffffffffffffffffffffffffffffffffffffffffffffffffff821415612c8457612c83612cc0565b5b600182019050919050565b6000612c9a82612b97565b9150612ca583612b97565b925082612cb557612cb4612cef565b5b828206905092915050565b7f4e487b7100000000000000000000000000000000000000000000000000000000600052601160045260246000fd5b7f4e487b7100000000000000000000000000000000000000000000000000000000600052601260045260246000fd5b7f4e487b7100000000000000000000000000000000000000000000000000000000600052602260045260246000fd5b7f4e487b7100000000000000000000000000000000000000000000000000000000600052604160045260246000fd5b6000601f19601f8301169050919050565b7f455243373231456e756d657261626c653a206f776e657220696e646578206f7560008201527f74206f6620626f756e6473000000000000000000000000000000000000000000602082015250565b7f4552433732313a207472616e7366657220746f206e6f6e20455243373231526560008201527f63656976657220696d706c656d656e7465720000000000000000000000000000602082015250565b7f4552433732313a207472616e736665722066726f6d20696e636f72726563742060008201527f6f776e6572000000000000000000000000000000000000000000000000000000602082015250565b7f4552433732313a20746f6b656e20616c7265616479206d696e74656400000000600082015250565b7f4552433732313a207472616e7366657220746f20746865207a65726f2061646460008201527f7265737300000000000000000000000000000000000000000000000000000000602082015250565b7f4552433732313a20617070726f766520746f2063616c6c657200000000000000600082015250565b7f4552433732313a206f70657261746f7220717565727920666f72206e6f6e657860008201527f697374656e7420746f6b656e0000000000000000000000000000000000000000602082015250565b7f4552433732313a20617070726f76652063616c6c6572206973206e6f74206f7760008201527f6e6572206e6f7220617070726f76656420666f7220616c6c0000000000000000602082015250565b7f4552433732313a2062616c616e636520717565727920666f7220746865207a6560008201527f726f206164647265737300000000000000000000000000000000000000000000602082015250565b7f4552433732313a206f776e657220717565727920666f72206e6f6e657869737460008201527f656e7420746f6b656e0000000000000000000000000000000000000000000000602082015250565b7f4552433732313a206d696e7420746f20746865207a65726f2061646472657373600082015250565b7f4552433732313a20617070726f76656420717565727920666f72206e6f6e657860008201527f697374656e7420746f6b656e0000000000000000000000000000000000000000602082015250565b7f4552433732314d657461646174613a2055524920717565727920666f72206e6f60008201527f6e6578697374656e7420746f6b656e0000000000000000000000000000000000602082015250565b7f4552433732313a20617070726f76616c20746f2063757272656e74206f776e6560008201527f7200000000000000000000000000000000000000000000000000000000000000602082015250565b7f4552433732313a207472616e736665722063616c6c6572206973206e6f74206f60008201527f776e6572206e6f7220617070726f766564000000000000000000000000000000602082015250565b7f455243373231456e756d657261626c653a20676c6f62616c20696e646578206f60008201527f7574206f6620626f756e64730000000000000000000000000000000000000000602082015250565b61321481612b2d565b811461321f57600080fd5b50565b61322b81612b3f565b811461323657600080fd5b50565b61324281612b4b565b811461324d57600080fd5b50565b61325981612b97565b811461326457600080fd5b5056fea2646970667358221220a55e7ffa9c112c1b72dc054c4cd408a64bed930a342ad893704de02065947d3364736f6c63430008040033",
  "immutableReferences": {},
  "source": "// SPDX-License-Identifier: MIT\r\npragma solidity >=0.8.4;\r\nimport \"../client/node_modules/@openzeppelin/contracts/token/ERC721/ERC721.sol\";\r\nimport \"../client/node_modules/@openzeppelin/contracts/token/ERC721/extensions/ERC721Enumerable.sol\"; \r\n\r\ncontract CryptoCoders is ERC721,ERC721Enumerable {\r\n\r\n    string[] public coders;\r\n    mapping(string => bool) public coderExist;\r\n\r\n    constructor() ERC721(\"CryptoCoder\",\"CCS\"){\r\n    }\r\n\r\n    function mint(string memory _coder)public {\r\n        require(!coderExist[_coder]);\r\n        coders.push(_coder);\r\n        uint _id = coders.length - 1;\r\n        _mint(msg.sender,_id);\r\n        coderExist[_coder]=true;\r\n    }\r\n\r\n    function _beforeTokenTransfer(address from, address to, uint256 tokenId)\r\n        internal\r\n        override(ERC721, ERC721Enumerable)\r\n    {\r\n        super._beforeTokenTransfer(from, to, tokenId);\r\n    }\r\n\r\n    function supportsInterface(bytes4 interfaceId) public view\r\n        override(ERC721, ERC721Enumerable)\r\n        returns (bool)\r\n    {\r\n        return super.supportsInterface(interfaceId);\r\n    }\r\n}",
  "sourcePath": "C:/Users/Arpit/Desktop/CryptoCoders/contracts/CryptoCoders.sol",
  "compiler": {
    "name": "solc",
    "version": "0.8.4+commit.c7e474f2.Emscripten.clang"
  },
  "schemaVersion": "3.2.3",
  "updatedAt": "2022-03-04T13:20:27.885Z",
  "networkType": "ethereum",
  "devdoc": {
    "kind": "dev",
    "methods": {
      "approve(address,uint256)": {
        "details": "See {IERC721-approve}."
      },
      "balanceOf(address)": {
        "details": "See {IERC721-balanceOf}."
      },
      "getApproved(uint256)": {
        "details": "See {IERC721-getApproved}."
      },
      "isApprovedForAll(address,address)": {
        "details": "See {IERC721-isApprovedForAll}."
      },
      "name()": {
        "details": "See {IERC721Metadata-name}."
      },
      "ownerOf(uint256)": {
        "details": "See {IERC721-ownerOf}."
      },
      "safeTransferFrom(address,address,uint256)": {
        "details": "See {IERC721-safeTransferFrom}."
      },
      "safeTransferFrom(address,address,uint256,bytes)": {
        "details": "See {IERC721-safeTransferFrom}."
      },
      "setApprovalForAll(address,bool)": {
        "details": "See {IERC721-setApprovalForAll}."
      },
      "symbol()": {
        "details": "See {IERC721Metadata-symbol}."
      },
      "tokenByIndex(uint256)": {
        "details": "See {IERC721Enumerable-tokenByIndex}."
      },
      "tokenOfOwnerByIndex(address,uint256)": {
        "details": "See {IERC721Enumerable-tokenOfOwnerByIndex}."
      },
      "tokenURI(uint256)": {
        "details": "See {IERC721Metadata-tokenURI}."
      },
      "totalSupply()": {
        "details": "See {IERC721Enumerable-totalSupply}."
      },
      "transferFrom(address,address,uint256)": {
        "details": "See {IERC721-transferFrom}."
      }
    },
    "version": 1
  },
  "userdoc": {
    "kind": "user",
    "methods": {},
    "version": 1
  }
}